:0A008900C0F9A4B0999282F88090AB
:10004600E4F509758921758DFD758BFD759840F56B
:1000560087D28ED2AFD2A9758C3C758AB0D28C80ED
:01006600FE9B
:10006700E509C3940940037509FF0509E5099000EF
:060077008993FF7E0022C8
:03000B0002000EE2
:10000E00C0E0C083C082C0D075D000C006C00775E6
:10001E008C3C758AB00508E508C3940A400D750836
:10002E00001200678F993099FDC299D007D006D083
:08003E00D0D082D083D0E03263
:0300000002007D7E
:0C007D00787FE4F6D8FD7581090200468A
:00000001FF
