:0A0292002020202054656D3A200062
:1000B2001201A212023B1202297BFF7A02799212EA
:1000C200017F120274D287AF90750C008F0DAE0CB7
:1000D2007C007D641200278C0C8D0DAE0CAF0D7C64
:1000E200007D0A1200278C0E8D0FAE0CAF0D7C0026
:1000F2007D0A1200277C007D0A1200278C0A8D0BD4
:10010200AE0CAF0D7C007D641200278E088F09EFC4
:100112007F8912024BE50B7F8A12024BE50F2430D6
:10012200FD7F8B7E00120250AF09AE08120211123F
:10013200025AAF0BAE0A12021112025AAF0FAE0EE2
:1001420012021112025A7F327E0012015FC287022E
:0201520000C4E7
:10021100C3EE94004011D3EF9409EE94005008EF1F
:080221002430FFE43EFE22221E
:1001A200C2B5C2B77F3812027E7F0C12027E7F0672
:0D01B20012027E7F0112027E7F8002027E1B
:10023B00758922758CC0758AC0D2AFD2A9D28C2297
:03000B00020003ED
:03000300B2B43262
:10022900758922758DFD758BFD759840E4F587D22A
:020239008E2213
:0A027400C286D286C28630B2FD2297
:0E025A008F993099FDC2997F017E0002015FED
:0B0154008FA07F017E0012015FD2B57A
:10015F00E4FDFCC3ED9FEC9E5015E4FBFA0BBB00D6
:0F016F00010AEB64644A70F50DBD00010C80E4D9
:01017E00225E
:0A027E00C2B7C2B6120154C2B52285
:0A028800C2B7D2B6120154C2B5226B
:05024B002430FD7E00DF
:0A025000A90512027EAF0102028828
:10017F008B108A118912AB10AA11A91212000EFF4F
:10018F00601012028874012512F512E43511F51171
:03019F0080E422D7
:1001BF00E4F975A0FFD2B7D2B67F01FE12015FD26C
:0C01CF00B5A9A0C2B57F1012027EAF01DE
:0101DB002201
:0401DC008E138F14DB
:1001E0001201F78F82AF1412027E1201BFA907AF6E
:0601F0008212027EAF0145
:0101F60022E6
:1001F700E4FE75A0FFD2B7C2B67F0512015AAFA0C1
:09020700C2B5EF2480FFEE33FEC6
:0102100022CB
:0300000002026891
:0C026800787FE4F6D8FD7581140200B226
:10000E00BB010689828A83E0225002E722BBFE02F0
:09001E00E32289828A83E4932223
:10002700C2D5EC30E709B2D5E4C39DFDE49CFCEEF4
:1000370030E715B2D5E4C39FFFE49EFE12005DC30F
:10004700E49DFDE49CFC800312005D30D507C3E40A
:060057009FFFE49EFE2263
:10005D00BC000BBE0029EF8DF084FFADF022E4CC87
:10006D00F875F008EF2FFFEE33FEEC33FCEE9DEC50
:10007D00984005FCEE9DFE0FD5F0E9E4CEFD22ED96
:10008D00F8F5F0EE8420D21CFEADF075F008EF2FE0
:10009D00FFED33FD4007985006D5F0F222C398FDD1
:0500AD000FD5F0EA226E
:00000001FF
