:100929000F08323031372D30342D303620534554AD
:0609390000031700000896
:10088C00E4F51A1208F5AB17AA18A9191209106089
:10089C002B051AE51AD3940F40087FC0120940E4C7
:1008AC00F51AAB17AA18A919120910FF12094874E6
:0E08BC00012519F519E43518F51880CA80FEDB
:1008F500C2B47F381209407F0C1209407F061209E5
:0B090500407F011209407F8002094082
:0B08CA008F807F057E001208D5D2B49D
:1008D500E4FDFCC3ED9FEC9E5015E4FBFA0BBB0059
:0F08E500010AEB64644A70F50DBD00010C80E45C
:0108F40022E1
:08094000C2B51208CAC2B422BC
:08094800D2B51208CAC2B422A4
:03000000020800F3
:0C080000787FE4F6D8FD75811A020847E5
:10091000BB010689828A83E0225002E722BBFE02E5
:09092000E32289828A83E4932218
:10080C0002088CE493A3F8E493A34003F68001F26E
:10081C0008DFF48029E493A3F85407240CC8C333ED
:10082C00C4540F4420C8834004F456800146F6DFBC
:10083C00E4800B0102040810204080900929E47E1A
:10084C00019360BCA3FF543F30E509541FFEE493B1
:10085C00A360010ECF54C025E060A840B8E493A378
:10086C00FAE493A3F8E493A3C8C582C8CAC583CAA3
:10087C00F0A3C8C582C8CAC583CADFE9DEE780BE5B
:01093F0000B7
:00000001FF
