:0A0221002020202054656D3A2000D3
:1000B2001201E2120173E4F5807BFF7A02792112C8
:1000C2000150C2B0D2B0C2B030B2FDD2B1AF907561
:1000D20013008F14AE137C007D0A1200278C088D4A
:1000E20009AE13AF147C007D0A1200277C007D0A42
:1000F2001200278C0A8D0BAE13AF147C007D6412A4
:1001020000278E0C8F0DEF7F881201F2E50B7F899D
:100112001201F2E5092430FD7F8A7E001201F7C246
:03012200B1809F0A
:03000B00020003ED
:03000300B2B43262
:1001E200758902758CC0758AC0D2AFD2A9D28C2211
:0B0125008FA07F017E00120130D2B5D8
:10013000E4FDFCC3ED9FEC9E5015E4FBFA0BBB0005
:0F014000010AEB64644A70F50DBD00010C80E408
:01014F00228D
:10017300C2B5C2B77F3812020D7F0C12020D7F0683
:0D01830012020D7F0112020D7F8002020D9D
:0A020D00C2B7C2B6120125C2B52225
:0A021700C2B7D2B6120125C2B5220B
:0501F2002430FD7E0039
:0A01F700A90512020DAF0102021764
:100150008B0E8A0F8910AB0EAA0FA91012000EFF8A
:10016000601012021774012510F510E4350FF50F19
:0301700080E42206
:10019000E4F975A0FFD2B7D2B67F01FE120130D2CA
:0C01A000B5A9A0C2B57F1012020DAF017E
:0101AC002230
:0401AD008E118F120E
:1001B1001201C88F82AF1212020D120190A907AF6E
:0601C1008212020DAF01E5
:0101C7002215
:1001C800E4FE75A0FFD2B7C2B67F0512012BAFA01F
:0901D800C2B5EF2480FFEE33FEF6
:0101E10022FB
:03000000020201F8
:0C020100787FE4F6D8FD7581140200B28D
:10000E00BB010689828A83E0225002E722BBFE02F0
:09001E00E32289828A83E4932223
:10002700C2D5EC30E709B2D5E4C39DFDE49CFCEEF4
:1000370030E715B2D5E4C39FFFE49EFE12005DC30F
:10004700E49DFDE49CFC800312005D30D507C3E40A
:060057009FFFE49EFE2263
:10005D00BC000BBE0029EF8DF084FFADF022E4CC87
:10006D00F875F008EF2FFFEE33FEEC33FCEE9DEC50
:10007D00984005FCEE9DFE0FD5F0E9E4CEFD22ED96
:10008D00F8F5F0EE8420D21CFEADF075F008EF2FE0
:10009D00FFED33FD4007985006D5F0F222C398FDD1
:0500AD000FD5F0EA226E
:00000001FF
