:0904F200020C0000C10001100021
:10022E007B077A007D017C007F0E7E001200031298
:10023E0004E4D28C12049EEF2490605C24C06045CE
:10024E0024E0606A24F070EC200008D200C280C264
:10025E008C8056C200D280E4F510AF90C374FF9F1D
:10026E00F50FE49400F50EAFA0C374FF9FF50BE4F9
:10027E009400F50AAFB0C374FF9FF509E49400F53E
:10028E0008D28C80AF3000ACE510C394104005E46A
:10029E00F510800205108011300099E510D39400FE
:1002AE0050057510108002151012000E8086300059
:0702BE00831203510202420A
:03000B000203C528
:1003C500C0E0C0F0C083C082C0D075D000C000C0FE
:1003D50001C002C003C004C005C006C007758C3C3F
:1003E500758AB0050DE50DAE0C7002050C1464128E
:1003F5004E701812042BAB09AA08AD0BAC0AAF0F4F
:10040500AE0E12046E750C00750D00D007D006D027
:1004150005D004D003D002D001D000D0D0D082D0F6
:0604250083D0F0D0E032AC
:0300030002046E86
:10046E008C158D168A178B188E0E8F0F85150A8593
:10047E00160B8517088518091204FC8F90AF16AE5F
:10048E00151204FC8FA0AF18AE171204FC8FB02209
:0E04E400758901758C3C758AB0D2AFD2A92201
:10042B00E509643B450860090509E50970340508D1
:10043B0022E4F508F509E50B643B450A6009050B59
:10044B00E50B701E050A22E4F50AF50BE50F6417A0
:10045B00450E6009050FE50F7008050E22E4F50E39
:03046B00F50F2268
:10000E00E510B41100400302022D90001FF82828BD
:10001E007302005202006E02008A0200A60200C2A3
:10002E000200DE0200FA02011602013202014E0245
:10003E00016A0201860201A20201BE0201DA020178
:10004E00F6020212E4F515F516B2B01204D5051635
:10005E00E51670020515C39404E515940040EA22D6
:10006E00E4F515F516B2B11204D50516E5167002B3
:10007E000515C39404E515940040EA22E4F515F540
:10008E0016B2B21204D50516E51670020515C39404
:10009E0004E515940040EA22E4F515F516B2B31204
:1000AE0004D50516E51670020515C39404E51594DE
:1000BE000040EA22E4F515F516B2B41204D5051681
:1000CE00E51670020515C39404E515940040EA2266
:1000DE00E4F515F516B2B51204D50516E51670023F
:1000EE000515C39404E515940040EA22E4F515F5D0
:1000FE0016B2A01204D50516E51670020515C394A6
:10010E0004E515940040EA22E4F515F516B2A112A5
:10011E0004D50516E51670020515C39404E515946D
:10012E000040EA22E4F515F516B2A21204D5051622
:10013E00E51670020515C39404E515940040EA22F5
:10014E00E4F515F516B2A31204D50516E5167002E0
:10015E000515C39404E515940040EA22E4F515F55F
:10016E0016B2A41204D50516E51670020515C39431
:10017E0004E515940040EA22E4F515F516B2A51231
:10018E0004D50516E51670020515C39404E51594FD
:10019E000040EA22E4F515F516B2901204D50516C4
:1001AE00E51670020515C39404E515940040EA2285
:1001BE00E4F515F516B2911204D50516E516700282
:1001CE000515C39404E515940040EA22E4F515F5EF
:1001DE0016B2921204D50516E51670020515C394D3
:1001EE0004E515940040EA22E4F515F516B29312D3
:1001FE0004D50516E51670020515C39404E515948D
:10020E000040EA22E4F515F516B2941204D505164F
:0F021E00E51670020515C39404E515940040EA37
:01022D0022AE
:10035100E510B41100506C90035FF8282873020374
:100361009202039502039802039B02039E0203A1DA
:100371000203A40203A70203AA0203AD0203B0020F
:1003810003B30203B60203B90203BC0203BF0203B3
:10039100C2B2B022B2B122B2B222B2B322B2B422FC
:1003A100B2B522B2A022B2A122B2A222B2A322B23B
:1003B100A422B2A522B29022B29122B29222B29389
:0403C10022B29422AE
:1004C400E4FEEEC39F5009E4FD0DBD64FC0E80F212
:0104D4002205
:0E04D50000007F027E057D05DDFEDEFCDFFA05
:0104E30022F6
:0904FC00C374FF9FFFE49EFE2281
:10049E00E58054F064F0601B7F011204C4E58054C3
:1004AE00F064F0600EE58054F0FFE580440FFEBE70
:0504BE00FFF8227F00A1
:0104C3002216
:030000000202C534
:0C02C500787FE4F6D8FD75812002030C60
:1002D10002022EE493A3F8E493A34003F68001F213
:1002E10008DFF48029E493A3F85407240CC8C3332E
:1002F100C4540F4420C8834004F456800146F6DFFD
:10030100E4800B01020408102040809004F2E47E96
:10031100019360BCA3FF543F30E509541FFEE493F1
:10032100A360010ECF54C025E060A840B8E493A3B8
:10033100FAE493A3F8E493A3C8C582C8CAC583CAE3
:10034100F0A3C8C582C8CAC583CADFE9DEE780BE9B
:0104FB000000
:00000001FF
