:0F00DB000D0848656C6C6F2C776F726C64210098
:1000BE00E4FFFEE4FDFC0DBD00010CED640A4C7086
:0C00CE00F50FBF00010EBE01EABF90E775
:0100DA002203
:10008F00758920759840E4F587758DFD758BFDD2C8
:10009F008EFBFA74082BF8E6F5993099FDC2991288
:0F00AF0000BE0BBB00010AEB640C4A70E680FE3A
:03000000020003F8
:0C000300787FE4F6D8FD75811402004AF5
:10000F0002008FE493A3F8E493A34003F68001F278
:10001F0008DFF48029E493A3F85407240CC8C333F2
:10002F00C4540F4420C8834004F456800146F6DFC1
:10003F00E4800B01020408102040809000DBE47E76
:10004F00019360BCA3FF543F30E509541FFEE493B6
:10005F00A360010ECF54C025E060A840B8E493A37D
:10006F00FAE493A3F8E493A3C8C582C8CAC583CAA8
:10007F00F0A3C8C582C8CAC583CADFE9DEE780BE60
:0100EA000015
:00000001FF
