:1007EA0020202020204552524F5221202020202014
:1007FA00002053657474696E67206572726F722186
:10080A0000202020323031362D30322D323800206F
:10081A0020202032333A35393A35350000830084B6
:10082A000085008600880089008B008C00C400C502
:10083A0000C700C800CA00CB000900090009000966
:10084A00000100090003000900020009000500096F
:10085A00000500090001000000000000000000007F
:10086A00000000000000000000000000000000007E
:100CB700010800580000001F001C001F001E001F35
:100CC700001E001F001F001E001F001E001FC10086
:100BD500120D16120A43EF4E600B7BFF7A0779EA76
:100BE500120C7280FE120DAE120DC0120008120C0E
:0A0BF5004F8E358F36120B4280F44C
:03000B000209F7F0
:1009F700C0E0C0F0C083C082C0D075D000C000C0C6
:100A070001C002C003C004C005C006C007AF080587
:100A170008EFC3940D400A7508007F077E00120097
:100A27000ED007D006D005D004D003D002D001D015
:0C0A370000D0D0D082D083D0F0D0E032CC
:03000800D28C2275
:030E0200C28C227D
:050003007F08020DDB87
:100C4F00E590543F643F60177F967E00120B8AE554
:100C5F0090543F643F6008E590543FFF7E0022E4CC
:030C6F00FEFF2263
:100B4200EE7039EF24C9602824FC602124FE60176E
:100B5200146023240F7025300005C200020BFFD25F
:100B620000120A86020DCE300012020CD8020B04CB
:0D0B7200300009020CF7300003120AC52202
:100A86001205258E098F0A7F027E001205298E0B1C
:100A96008F0C7F037E001205298E0D8F0E7F057E3B
:100AA600001205298E0F8F107F067E001205298EF3
:0F0AB600118F127F077E001205298E138F1422D5
:0D0DCE00120E027F0F120DDB7FCB020DDB3A
:100BFF007F0C120DDB12062AEF4E7019F540F541EE
:100C0F00F5427BFF7A0779FB120C957FD07E071296
:080C1F000B8A120C27020008E9
:10062A001205258E378F387F027E001205298E39F2
:10063A008F3A7F037E001205298E3B8F3C7F057E11
:10064A00001205298E3D8F3E7F067E001205298EF7
:10065A003F8F407F077E00120529D3E538940FE5C6
:10066A003794275050C3E53894CDE53794075003A3
:10067A00020711D3E53A940CE5399400500BC3E50F
:10068A003A9401E53994005002807CD3E53C941FEA
:10069A00E53B9400500BC3E53C9401E53B940050C4
:1006AA00028064D3E53E9417E53D94005007C3E504
:1006BA003D940050028050D3E540943BE53F9400BE
:1006CA005007C3E53F94005002803CD3EF943BEEC1
:1006DA0094005006C3EE94005002802BE53A64025F
:1006EA0045397027AF38AE37120BAAEF4E600DD3DB
:1006FA00E53C941DE53B94004011800BD3E53C9406
:0F070A001CE53B94004004E4FEFF227E007F01CB
:0107190022BD
:100C27007B007A0079091203DC78377C007D007E2F
:100C3700007F061202D3853A40853B41853C42AB93
:080C470037AA38A939020C9507
:100C95008B3D8A3E893F7F01120DDBAB3DAA3EA904
:100CA5003F120C727FC0120DDBAB40AA41A9420274
:020CB5000C72BF
:1003DC00120379F53E85F03D9000021203A4F5401E
:1003EC0085F03F9000041203A4F54285F041900083
:1003FC00061203A4F54485F0439000081203A4F5FB
:10040C004685F04590000A1203A4F54885F047751F
:10041C004920754A20754B20AE3DAF3E7C037DE8EC
:10042C00120324120DA98F4CAE3DAF3E7C037DE828
:10043C001203247E007F64CFCDCFCECCCE1203240A
:10044C00120DA98F4DAE3DAF3E7C007D641203248E
:10045C007E007F0ACFCDCFCECCCE120324120DA9B5
:10046C008F4EAE3DAF3E120D9E8F4F75502DAE3F51
:10047C00AF407C007D0A120324120DA98F51AE3FB0
:10048C00AF40120D9E8F5275532DAE41AF427C0082
:10049C007D0A120324120DA98F54AE41AF42120DE6
:1004AC009E8F55755620755720755820755920AE5E
:1004BC0043AF447C007D0A120324120DA98F5AAE5F
:1004CC0043AF44120D9E8F5B755C3AAE45AF467CD4
:1004DC00007D0A120324120DA98F5DAE45AF4612A2
:1004EC000D9E8F5E755F3AAE47AF487C007D0A1259
:1004FC000324120DA98F60AE47AF48120D9E8F6179
:10050C0075620075630075644975650075660075E4
:08051C0067567B007A0079624A
:0105240022B4
:100AC500120D6B8E378F38E5386483453770047F98
:100AD500CB8028E53864C4453770047F8C801CE5DD
:100AE5003824FFFFE53734FFFE120D50EF643A60FE
:0E0AF50003BF2D057F10120DDB7F10120DDBED
:010B030022CF
:100B0400120D6B8E378F38E538648C453770047F4F
:100B1400C48027E53864CB453770047F83801BE5A8
:100B2400382401FFE43537FE120D50EF643A6003B8
:0D0B3400BF2D057F14120DDB7F14120DDBA9
:010B41002291
:100CD800120D6B8E378F38120D33120DF9AD38ACFB
:0F0CE8003712097F120DA9120DE57F10020DDBE7
:100CF700120D6B8E378F38120D33120DF9AD38ACDC
:0F0D070037120906120DA9120DE57F10020DDB40
:08097F008C398D3AAB07AA0682
:10098700E4FDFCED25E0FFEC33FE74262FF58274C1
:10099700083EF583740193B53A46E493B53941EDC2
:1009A70025E0FFEC33FE74422FF58274083EF58391
:1009B700740193B50321E493B5021CED25E0FFEC28
:1009C70033FE745E2FF58274083EF583E493F53B9E
:1009D700740193F53C8009EB2401F53CE43AF53BBF
:0F09E7000DBD00010CED640E4C7098AE3BAF3CA3
:0109F60022DE
:080906008C398D3AAB07AA06FB
:10090E00E4FDFCED25E0FFEC33FE74262FF582743A
:10091E00083EF583740193B53A47E493B53942ED39
:10092E0025E0FFEC33FE745E2FF58274083EF583EE
:10093E00740193B50321E493B5021CED25E0FFECA1
:10094E0033FE74422FF58274083EF583E493F53B33
:10095E00740193F53C800AEB24FFF53CEA34FFF575
:10096E003B0DBD00010CED640E4C7097AE3BAF3CE1
:01097E002256
:100DAE007540FF7541087542197BFF7A08790B0271
:020DBE000C9592
:100A43007537FF75380875390B753AFF753B0875AF
:100A53003C19AB37AA38A939120D85D3EF9410EEA0
:100A6300648094805014AB3AAA3BA93C120D85D301
:100A7300EF9410EE6480948040057E007F0122E4B1
:020A8300FEFF74
:010A8500224E
:0E0DC000758901758C3C758AB0D2AFD2A9221C
:10000E00EE6003020202EF24FE70030200B51470CC
:10001E00030200FA24FE700302013F147003020172
:10002E00821470030201C12406600302020212054B
:10003E00258E218F227D017C0012071A8E238F249C
:10004E007C037DE8120324120DA9AD077F837E0089
:10005E00120DEFAE23AF247C037DE81203247E0045
:10006E007F64CFCDCFCECCCE120324120DA9AD0717
:10007E007F847E00120DEFAE23AF247C007D6412D0
:10008E0003247E007F0ACFCDCFCECCCE1203241216
:10009E000DA9AD077F857E00120DEF120D9AAD07EB
:1000AE007F867E00020DEF7F027E001205298E21D3
:1000BE008F227D027C0012071A8E238F247C007DF6
:1000CE000A120324120DA9AD077F887E00120DEFD0
:1000DE00120D9AAD077F897E00120DEFE5246401A3
:1000EE00452360030202027F010201FE7F037E00B0
:1000FE001205298E218F227D037C0012071A8E2372
:10010E008F247C007D0A120324120DA9AD077F8B6C
:10011E007E00120DEF120D9AAD077F8C7E00120D30
:10012E00EFE5246401452360030202027F0202010F
:10013E00FE7F057E001205298E218F227D057C0013
:10014E0012071A8E238F247C007D0A120324120DAF
:10015E00A9AD077FC47E00120DEF120D9AAD077F79
:10016E00C57E00120DEFE524452360030202027FD7
:10017E00030201FE7F067E001205298E218F227D4D
:10018E00067C0012071A8E238F247C007D0A120330
:10019E0024120DA9AD077FC77E00120DEF120D9A26
:1001AE00AD077FC87E00120DEFE524452370457F15
:1001BE0005803D7F077E001205298E218F227D0747
:1001CE007C0012071A8E238F247C007D0A120324D2
:1001DE00120DA9AD077FCA7E00120DEF120D9AAD5A
:1001EE00077FCB7E00120DEFE524452370067F06B8
:0401FE00FE12000EDF
:0102020022D9
:040525007F017E00D4
:10052900EE6003020602EF24FE70030205BE14709A
:10053900030205CC24FE70030205DA1470030205D8
:10054900E81470030205F6240660030206027545E5
:10055900007546837F847E00754700754885754917
:1005690000754A86120D50120DF97C007D64120344
:1005790012C006C007AF46AE45120D50120DF97CE8
:10058900037DE8120312D0E02FFDD0E03EFCC00449
:10059900C005AF48AE47120D50120DF97C007D0A17
:1005A900120312D0E02FFDD0E03EFCC004C005AF1D
:1005B9004AAE49805D7541007542887543007544AE
:1005C90089803675410075428B75430075448C806E
:1005D900287541007542C47543007544C5801A7574
:1005E90041007542C77543007544C8800C754100C8
:1005F9007542CA7543007544CBAF42AE41120D50E6
:10060900120DF97C007D0A120312C006C007AF441F
:10061900AE43120D50120DF9D0E02FFFD0E03EFE8F
:0106290022AE
:04071A008E258F2673
:10071E00AF05EC60030207E5EF24FE603314603E84
:10072E0024FE70030207B41470030207C014700392
:10073E000207CC240660030207E5E526B40F0EE59A
:10074E0025B427097527077528CD0207E50207DAB4
:10075E00E526640C45257004F5278043806E12054E
:10076E0025120BAAEF4E9000026008E4F0A3741D50
:10077E00F08006E4F0A3741CF07F027E00120529BF
:10078E00EF25E0FFEE33FE74FE2FF58274FF3EF58B
:10079E0083E0FEA3E0B5260CEEB52508752700759F
:1007AE00280180338026E5266417452570028016C1
:1007BE00801AE526643B45257002800A800EE526E8
:1007CE00643B45257006F527F528800BE5262401A8
:0B07DE00F528E43525F527AE27AF28ED
:0107E90022ED
:0B0B7F008F807F017E00120B8AD2B530
:100B8A00E4FDFCC3ED9FEC9E5015E4FBFA0BBB00A1
:0F0B9A00010AEB64644A70F50DBD00010C80E4A4
:010BA9002229
:090DF900EF24D0FFE434FFFE22D8
:0F0D9A00AE23AF247C007D0A120324AE04AF0504
:050DA900EF2430FF22E1
:100BAA00AB07AA06EB5403700AFC7D64120324ED1A
:100BBA004C700FAE02AF037C017D90120324ED4C02
:0B0BCA0070057E007F0122E4FEFF2288
:100D1600C2B5C2B77F38120DDB7F0C120DDB7F0622
:0D0D2600120DDB7F01120DDB7F80020DDB63
:0A0DDB00C2B7C2B6120B7FC2B522E8
:0A0DE500C2B7D2B6120B7FC2B522CE
:0A0DEF00A905120DDBAF01020DE5AE
:100C72008B438A448945AB43AA44A9451202F9FF32
:100C82006010120DE574012545F545E43544F5443F
:030C920080E422D9
:100D3300E4F97580FFD2B7D2B67F01FE120B8AD2D7
:0C0D4300B5A980C2B57F10120DDBAF0116
:010D4F002281
:040D50008E4B8F4CEB
:100D5400120D6B8F82AF4C120DDB120D33A907AF4E
:060D640082120DDBAF015D
:010D6A002266
:100D6B00E4FE7580FFD2B7C2B67F05120B85AF804C
:090D7B00C2B5EF2480FFEE33FE47
:010D8400224C
:0300000002087A79
:0C087A00787FE4F6D8FD7581670208C1A4
:10020300E709F608DFFA8046E709F208DFFA803EDD
:1002130088828C83E709F0A3DFFA8032E309F608CA
:10022300DFFA8078E309F208DFFA807088828C8332
:10023300E309F0A3DFFA806489828A83E0A3F608E6
:10024300DFFA805889828A83E0A3F208DFFA804CC0
:1002530080D280FA80C680D4806980F28033801097
:1002630080A680EA809A80A880DA80E280CA803300
:1002730089828A83ECFAE493A3C8C582C8CCC58378
:10028300CCF0A3C8C582C8CCC583CCDFE9DEE78048
:100293000D89828A83E493A3F608DFF9ECFAA9F0C7
:1002A300EDFB2289828A83ECFAE0A3C8C582C8CC1D
:1002B300C583CCF0A3C8C582C8CCC583CCDFEADE36
:1002C300E880DB89828A83E493A3F208DFF980CC98
:1002D30088F0EF60010E4E60C388F0ED2402B40491
:1002E3000050B9F582EB2402B4040050AF23234538
:0602F30082239002537308
:1002F900BB010689828A83E0225002E722BBFE0203
:09030900E32289828A83E4932235
:10031200EF8DF0A4A8F0CF8CF0A428CE8DF0A42EFF
:02032200FE22B9
:10032400BC000BBE0029EF8DF084FFADF022E4CCBD
:10033400F875F008EF2FFFEE33FEEC33FCEE9DEC86
:10034400984005FCEE9DFE0FD5F0E9E4CEFD22EDCC
:10035400F8F5F0EE8420D21CFEADF075F008EF2F16
:10036400FFED33FD4007985006D5F0F222C398FD07
:050374000FD5F0EA22A4
:10037900BB010A89828A83E0F5F0A3E0225006874F
:10038900F009E71922BBFE07E3F5F009E319228911
:0B039900828A83E493F5F07401932244
:1003A400BB0110E58229F582E5833AF583E0F5F097
:1003B400A3E0225009E92582F886F008E622BBFE74
:1003C4000AE92582F8E2F5F008E222E5832AF583BA
:0803D400E993F5F0A3E993227F
:100D8500E4FFFE1202F9600C0FEF70010E09E97025
:050D9500F20A80EF22CC
:10088600020BD5E493A3F8E493A34003F68001F2A8
:1008960008DFF48029E493A3F85407240CC8C33373
:1008A600C4540F4420C8834004F456800146F6DF42
:1008B600E4800B0102040810204080900CB7E47E0F
:1008C600019360BCA3FF543F30E509541FFEE49337
:1008D600A360010ECF54C025E060A840B8E493A3FE
:1008E600FAE493A3F8E493A3C8C582C8CAC583CA29
:1008F600F0A3C8C582C8CAC583CADFE9DEE780BEE1
:010CD700001C
:00000001FF
