:1007EC00256400303030303030007E7DBEBDBBDE45
:1007FC00DDDBEEEDEB77B7D7E77B633031323334AB
:0A080C0035363738392B2D2A2F3DE1
:04097400020A000073
:0305C400120945D4
:1005C7001207AC8F22852280E52212057C06207750
:1005D70006897B06207D06087E0620B70620BB0617
:1005E70020BD0620BE0620D70620DB0620DD06201C
:1005F700DE0620E70620EB0620ED0620EE000005CC
:10060700C77F011209567F0A1208D77D307F807E87
:100617000012096A12083D80A7AF221209028F2330
:10062700E5236430601FAF0B740B2FF8E6B4301569
:10063700740A2FF8E6FF12091AEF60091208E8EFAB
:1006470014FF120956AF2312073BEF4E7003020542
:10065700C7E50B450A70157F011209567F0A120874
:10066700D7AD237F807E0012096A8005AF23120968
:1006770060050BE50B7002050A14240CF8A623028B
:1006870005C77B007A00790C12035F8E248F257DC6
:100697003D7FC07E0012096AAF25AE2412085B12A7
:0806A700093212083D0205C7EB
:10085B00752CFF752D07752EEC8E2F8F30AB26AABE
:0C086B0027A92812005FAB26AA27A928A5
:01087700225E
:06035F008B268A27892885
:10036500E4F52DF52EF52FF530E50B450A70030262
:1003750004CAE4F529F52AC3E52A950BE529950A6A
:100385005028AB26AA27A928852A82852983120405
:10039500E8FF12091AEF600885292B852A2C800AA7
:1003A500052AE52A70D1052980CD75310075320100
:1003B500E52C24FFF52AE52B34FFF529C3E529644F
:0503C50080948040451A
:1003CA00AB26AA27A928852A828529831204E8242C
:1003DA00D0F534E434FFF533FCAD34AE31AF32122C
:1003EA000515EF252EF52EEE352DF52DAE31AF3252
:0B03FA007C007D0A1205158E318F3249
:10040500E52A152A70B6152980B2753100753201B5
:10041500E50B24FFF52AE50A34FFF529D3E52A95EE
:100425002CE52B6480F8E5296480984040AB26AA2A
:1004350027A928852A828529831204E824D0FFE488
:1004450034FFFEAC31AD32120515EF2530F530EE37
:10045500352FF52FAE31AF327C007D0A1205158E92
:10046500318F32E52A152A70B3152980AFAB26AA3C
:1004750027A928852C82852B831204E824D6602998
:1004850024FD601624FE602E24047039E52E2530E7
:10049500F509E52D352FF508802BC3E52E9530F5AB
:1004A50009E52D952FF508801CAC2FAD30AE2DAF8D
:1004B5002E120515800BAC2FAD30AE2DAF2E1205CB
:0904C500278E088F09AE08AF096B
:0104CE00220B
:10090200E4FEEE9007F693B50707EE90080693FF14
:07091200220EBE10ED7F0074
:0109190022BB
:10091A00EF642B600DEF642D6008EF642A6003BF5B
:08092A002F037F01227F002250
:02073B00AE0707
:10073D00E4FDFCD3E50B9410E50A940040028056CD
:10074D00740B250BF8E6B43005BE30028048E50B7E
:10075D00450A700DAF0612091AEF7003BE30028004
:10076D0035E4FBFAC3EB950BEA950A5018740C2B84
:10077D00F8E6FF12091AEF60050DBD00010C0BBB69
:10078D0000010A80DFC3ED9401EC9400400CAF062C
:0E079D0012091AEF6004E4FEFF227E007F01C5
:0107AB00222B
:10083D007F80120956E4F50AF50BFFEFC3950BE423
:0D084D00950A5009740C2FF8E4F60F80EEA8
:01085A00227B
:10087800C2B5C2B77F381209567F0C1209567F06D7
:0D0888001209567F011209567F80020956A1
:100945001208787F641208D77BFF7A0779EF0209CE
:01095500326F
:1007AC0075900FE590540FFFBF0F037FFF227F0161
:1007BC001208D7E4FE7F7FA806EF08800103D8FD5E
:1007CC00F59030900D30910A3092073093040EBEA4
:0F07DC0004E3AF90E590640F600575900F80F512
:0107EB0022EB
:0908CE008FA07F011208D7D2B5FA
:1008D700E4FEEEC39F5009E4FD0DBD32FC0E80F22D
:0108E70022EE
:0A095600C2B7C2B61208CEC2B52225
:0A096000C2B7D2B61208CEC2B5220B
:0A096A00AC05120956AF0402096043
:100932001204CFFF600C120960740129F9E43AFA3B
:0309420080EE2222
:1008B200E4FC75A0FFD2B7D2B67F011208D7D2B539
:0B08C200ACA0C2B57F10120956AF04B5
:0108CD002208
:040895008E1C8F1D09
:100899001208E8AB07AA06AF1D1209561208B2AC36
:0808A90007AF03120956AF046A
:0108B1002224
:1008E800E4FE75A0FFD2B7C2B67F051208D2AFA04A
:0908F800C2B5EF2480FFE433FED9
:0109010022D3
:030000000206AF46
:0C06AF00787FE4F6D8FD75813C0206F669
:1004CF00BB010689828A83E0225002E722BBFE022B
:0904DF00E32289828A83E493225E
:1004E800BB010CE58229F582E5833AF583E02250C9
:1004F80006E92582F8E622BBFE06E92582F8E22213
:0D050800E58229F582E5833AF583E493222C
:10051500EF8DF0A4A8F0CF8CF0A428CE8DF0A42EFA
:02052500FE22B4
:10052700BC000BBE0029EF8DF084FFADF022E4CCB8
:10053700F875F008EF2FFFEE33FEEC33FCEE9DEC81
:10054700984005FCEE9DFE0FD5F0E9E4CEFD22EDC7
:10055700F8F5F0EE8420D21CFEADF075F008EF2F11
:10056700FFED33FD4007985006D5F0F222C398FD02
:050577000FD5F0EA229F
:10057C00D083D082F8E4937012740193700DA3A30E
:10058C0093F8740193F5828883E473740293686022
:06059C00EFA3A3A380DF22
:10000300E538242CF8E60538227829300702782CC5
:10001300E475F0011205B40204CF2000EB7F2ED269
:10002300008018EF540F2490D43440D4FF30040BD5
:10003300EF24BFB41A0050032461FFE539600215B1
:1000430039053CE53C7002053B30070D7829E47522
:10005300F0011205B4EF0205A20208167403D207D9
:100063008003E4C207F5388B298A2A892BE4F53902
:10007300F53BF53CE53960077F2012003E80F575BE
:100083003AFFC201C200C202C203C205C206C208CD
:1000930012000CFF700D3007057F0012004FAF3CBC
:1000A300AE3B22B4255FC2D5C20412000CFF24D09C
:1000B300B40A00501A75F00A783930D50508B6FF2E
:1000C3000106C6A426F620D5047002D20380D924E3
:1000D300CFB41A00EF5004C2E5D20402024FD2019A
:1000E30080C6D20080C0D20280BCD2D580BAD205ED
:1000F30080B47F2012003E2002077401B53900400E
:10010300F1120003FF12003E020077D208D20680EC
:1001130095120003FB120003FA120003F94A4B7015
:100123000679207A037BFF20022EE539602A7E00C0
:100133008E827583001204E860060EEE653A70F055
:10014300C2D5EBC0E0EAC0E0E9C0E0EE120296D00F
:10015300E0F9D0E0FAD0E0FB1204CFFF60AAEBC0D5
:10016300E0EAC0E0E9C0E012003ED0E02401F9D0AB
:10017300E03400FAD0E0FBE53A0460DCD53AD980FC
:10018300877BFF7A027992D202809C791080027970
:1001930008C206C2088008D2D5790A8004790AC247
:1001A300D5E53A047002F53AE4FAFDFEFF120003C6
:1001B300FC7B08200113120003FD7B1030000A12A0
:1001C3000003FE120003FF7B20EC3382D592D5504F
:1001D30013C3E43000069FFFE49EFEE42001039D69
:1001E300FDE49CFCE4CBF8C201EC700CCFCECDCC8B
:1001F300E824F8F870F38017C3EF33FFEE33FEED16
:1002030033FDEC33FCEB33FB994002FB0FD8E9EBF6
:10021300300105F8D0E0C448B201C0E00AEC4D4E0D
:100223004F78207B0070C2EAB53A0040BCC0E012B0
:100233000298D0F0D0E0200104C4C0E0C4B201C0F1
:10024300F0120027D0F0D5F0EB02007712057C0105
:100253001453018E5800E54C00E14201924F019A7C
:0F02630044019A4900FA4301A0550184460184E1
:100272004501844703405000E92D00ED2E01102B6B
:1002820000F123010E2003292A00A94800000108D9
:100292003F3F3F00790AA2D5200314300509B91067
:1002A200020404B9080104A2D52006025001042068
:1002B20002689202B539005034C0E07F2030031941
:1002C2007F30A20272067205500F1202EFC202C202
:1002D20006C205C2087F30800F300503E9C0E01274
:1002E200003E300503D0E0F9D0E0B539CC30051737
:1002F2007F30B9100C12003E7F583004077F78809F
:1003020003B9080312003E3002057F2D02003E7F32
:10031200202008F87F2B2006F322920280CF286E3D
:10032200756C6C2900D2011200033001F8C2017809
:100332003930D50108F60200A92D50434958120060
:10034200032403B405004001E490033B9312002F01
:0D035200743A12002FD20375390402018E97
:1006BB000205C4E493A3F8E493A34003F68001F28C
:1006CB0008DFF48029E493A3F85407240CC8C33340
:1006DB00C4540F4420C8834004F456800146F6DF0F
:1006EB00E4800B0102040810204080900974E47E22
:1006FB00019360BCA3FF543F30E509541FFEE49304
:10070B00A360010ECF54C025E060A840B8E493A3CA
:10071B00FAE493A3F8E493A3C8C582C8CAC583CAF5
:10072B00F0A3C8C582C8CAC583CADFE9DEE780BEAD
:01097800007E
:1005A200BB010689828A83F0225002F722BBFE0138
:0205B200F32232
:1005B400FAE6FB0808E6F925F0F618E6CA3AF62248
:10081600EFB40A07740D120821740A309811A899CA
:10082600B8130CC2983098FDA899C298B811F63042
:0708360099FDC299F599221A
:00000001FF
