:100089001200007F641200457F801200BC7F6E124F
:0400990000C680FE1F
:09003C008FA07F01120045D2B52E
:10004500E4FEEEC39F5009E4FD0DBD32FC0E80F2C7
:010055002288
:0A00BC00C2B7C2B612003CC2B52262
:0A00C600C2B7D2B612003CC2B52248
:0A00D000AC051200BCAF040200C62C
:10009D00120070FF600C1200C6740129F9E43AFADF
:0300AD0080EE22C0
:10002000E4FC75A0FFD2B7D2B67F01120045D2B56D
:0B003000ACA0C2B57F101200BCAF04F2
:01003B0022A2
:040003008E088F09CB
:10000700120056AB07AA06AF091200BC120020ACBB
:0800170007AF031200BCAF04A7
:01001F0022BE
:10005600E4FE75A0FFD2B7C2B67F05120040AFA07E
:09006600C2B5EF2480FFE433FE73
:01006F00226E
:030000000200B04B
:0C00B000787FE4F6D8FD75810902008914
:10007000BB010689828A83E0225002E722BBFE028E
:09008000E32289828A83E49322C1
:00000001FF
